{
  "contractName": "Counter",
  "abi": [
    {
      "inputs": [],
      "payable": false,
      "stateMutability": "nonpayable",
      "type": "constructor"
    },
    {
      "constant": false,
      "inputs": [],
      "name": "increment",
      "outputs": [],
      "payable": false,
      "stateMutability": "nonpayable",
      "type": "function"
    },
    {
      "constant": true,
      "inputs": [],
      "name": "getCounter",
      "outputs": [
        {
          "internalType": "uint256",
          "name": "",
          "type": "uint256"
        }
      ],
      "payable": false,
      "stateMutability": "view",
      "type": "function"
    }
  ],
  "bytecode": "0x6080604052348015600f57600080fd5b506000808190555060ac806100256000396000f3fe6080604052348015600f57600080fd5b506004361060325760003560e01c80638ada066e146037578063d09de08a146053575b600080fd5b603d605b565b6040518082815260200191505060405180910390f35b60596064565b005b60008054905090565b600080815480929190600101919050555056fea265627a7a72315820af7f2174d75a831ea0473f8cda3b5b445d878f9774d851a5bf72ac4e7c1d7d6164736f6c63430005100032",
  "source": "pragma solidity ^0.5.16;\n\ncontract Counter {\n  uint counter;\n\n  constructor() public {\n    counter = 0; // Initialise the counter to 0\n  }\n\n  function increment() public {\n    counter++;\n  }\n\n  function getCounter() public view returns (uint) {\n    return counter;\n  }\n}\n",
  "sourcePath": "/Users/tintinthong/Documents/GitHub/test-sokol/contracts/Counter.sol",
  "compiler": {
    "name": "solc",
    "version": "0.5.16+commit.9c3226ce.Emscripten.clang"
  },
  "schemaVersion": "3.4.0",
  "updatedAt": "2021-05-11T02:41:14.642Z",
  "devdoc": {
    "methods": {}
  },
  "userdoc": {
    "methods": {}
  }
}